:020000041000EA
:1000000000B5324B212058609868022188439860DF
:10001000D860186158612E4B002199600221596106
:100020000121F02299502B49196001219960352056
:1000300000F044F80222904214D00621196600F024
:1000400034F8196E01211966002018661A6600F04E
:100050002CF8196E196E196E052000F02FF8012189
:100060000842F9D1002199601B49196000215960AB
:100070001A491B48016001219960EB211966A021F2
:10008000196600F012F800219960164914480160C1
:100090000121996001BC002800D000471248134993
:1000A000086003C880F30888084703B5996A0420EC
:1000B0000142FBD001200142F8D103BD02B5186610
:1000C0001866FFF7F2FF186E186E02BD00000240BE
:1000D000000000180000070000035F00212200005C
:1000E000F4000018222000A00001001008ED00E03C
:1000F00000000000000000000000000074B24E7A12
:1001000000200420F7010010CB010010CD010010E9
:10011000C9010010C9010010C9010010C901001077
:10012000C9010010C9010010C9010010CF01001061
:10013000C9010010C9010010D1010010D301001045
:10014000C1010010C1010010C1010010C101001067
:10015000C1010010C1010010C1010010C101001057
:10016000C1010010C1010010C1010010C101001047
:10017000C1010010C1010010C1010010C101001037
:10018000C1010010C1010010C1010010C101001027
:10019000C1010010C1010010C1010010C101001017
:1001A000C1010010C1010010C1010010C101001007
:1001B000C1010010C1010010C1010010C1010010F7
:1001C000EFF30580103800BE00BE00BE00BE00BECA
:1001D00000BE00BEF2EB887184710010A4710010A3
:1001E0003802001090A31AE71E481F49086006C88D
:1001F00081F3088810471D480068002801D019487D
:10020000F3E70DA40ECC002902D000F012F8F9E7B4
:100210001749184A002000E001C19142FCD116495B
:100220008847164988471649884700BEFDE701C937
:1002300001C29A42FBD37047A4710010C000002095
:100240008C080020707900100000042000000420B9
:10025000707900100010042000100420000000003D
:10026000704700000000000008ED00E0000000D032
:100270008C0800207C270020A55300109504001056
:100280009D530010F8B5C0460448054B10B5834295
:1002900003D0044B002B00D0984710BD8C080020E1
:1002A0008C0800200000000006480749091A8B103E
:1002B000C90FC91810B5491003D0044B002B00D04A
:1002C000984710BD8C0800208C080020000000001A
:1002D00010B5074C2378002B09D1FFF7D5FF054B4C
:1002E000002B02D0044800E000BF0123237010BDA2
:1002F000100C002000000000046A0010054B10B52F
:10030000002B03D00449054800E000BFFFF7CCFFF5
:1003100010BDC04600000000140C0020046A00104C
:10032000014B986A7047C04600400540F0B546460C
:100330004F46D646C0B51E00234B894698461B68DB
:100340001400022B1CDCD02580232D069B022200EA
:10035000AB61494633001D4806F022FB8022D202E1
:1003600069681142FCD180239B026B6143461B6884
:10037000022B16DC3000E0BCBA46B146A846F0BD00
:10038000134805F041FA002EDDDDB2464D46114F0F
:10039000CA4429783800013505F036FA5545F8D1B8
:1003A000D1E70D4805F030FA002E08DD094FA519F8
:1003B00021783800013405F027FAA542F8D10A2047
:1003C00005F04EF9D6E7C0467827002000C003406C
:1003D000086A0010106A0010186A001070B5284CE6
:1003E0002849200005F01CFA0222274963680A60A8
:1003F0002168134005325140C8320A402349102079
:100400000A60234AD024136001F052FD012110201C
:1004100001F020FD0521112001F01CFD0121122019
:1004200001F018FD0121132001F014FD112001F04D
:100430003FFD802324069B0263621420636101F068
:1004400037FD80235B0363621620636101F030FD9A
:1004500080238025DB0300220121A362162001F006
:1004600013FDAD03152001F023FD65620120A56198
:1004700002F012F96561012002F00EF970BDC0466C
:1004800000C00340C0D8A70004F0034000D00340E0
:1004900004E00340032270B500243B4B1A6005F0D2
:1004A000DDF83A4802F0F8F8394805F025F920005F
:1004B000FFF794FF200000F005F9200000F05AFB40
:1004C000002804D1334805F017F9002070BD00243E
:1004D000200000F03BFCA04247D101212E4A2F48CA
:1004E00000F0CAFE2E4B011E00DB2E4B2B4A2E487D
:1004F00005F08AF900212D4A284800F0BDFE284B5E
:10050000011E00DB274B0024244A294805F07CF912
:100510002000284A284900F073FE0400274805F00F
:1005200073F9274E002C2BD0D02580242D06E40310
:100530000BE0642000F05EF8002809D02E2005F0C2
:100540008FF83368986805F0C3FA6B682342F0D1DE
:100550000A20D025802405F083F82D06E4036B687B
:100560002342FCD101F044F9F9E72000154900F0DD
:10057000CDFAA042B1D02000124900F093FAACE7C6
:100580000A2005F06DF8A0E7782700208813000006
:100590002C6A0010506A0010791C00100104000041
:1005A000246A0010206A0010686A0010811D001083
:1005B000846A0010A06A0010AC6A0010B46A0010CF
:1005C0004003002070800500084B00021A680843B1
:1005D00080B2002A04D107E09A680833002A03D0C9
:1005E0009042F9D1586870470148FCE75402002056
:1005F000106D001070B505006C01641BA400641937
:10060000FFF78EFEE40006D02418FFF789FE84422F
:10061000FBD8012070BDFFF783FEFAE7F8B54E4620
:100620004546DE465746E0B50E00050019001F4856
:100630009046994605F0E8F8002E22DD4346002B4F
:1006400028D0731E9B461A4B00249A46194F295DE9
:100650003800013405F0D8F8A64212D041462000F7
:1006600002F0D2FB0029F2D1A3451DD049465046E5
:1006700005F0CAF8295D3800013405F0C5F8A64236
:10068000ECD10A2004F0ECFFF0BCBB46B246A94610
:10069000A046F8BD074FAE1929783800013505F09E
:1006A000B3F8B542F8D1ECE70349E0E7C06A0010BF
:1006B000CC6A0010C46A0010106D001040BA80B2FD
:1006C0007047C0460B2310B5034A0449FFF72EFEBE
:1006D0000022034B1A7010BDD41500201002002018
:1006E000BC020020F0B5C64605000C00904600B5DF
:1006F000302926D880220B0212041A43C423101476
:10070000204EC0B20002034330001112C9B20904E6
:1007100012060B4313430021072208C003F022FAFC
:10072000194F0B233A0031002800FFF7FFFD002886
:1007300003D03A7933789A4206D0072080BCB84675
:10074000F0BD0A00CA23DAE77B79002BF5D10F222E
:10075000BB799343F02BF0D13A7AFB7912021A431A
:100760007B7A1B041343BA7A12061A4343461A6073
:10077000064B1B68012BE0DD2100054805F044F81D
:10078000DBE7C04638210020D41500207827002060
:10079000D06A0010F0B54E46DE46994657464546AB
:1007A0008A46C8232D49E0B50B7053461B0C4B708D
:1007B00053465BBA4B804B461B140B714B461B12C6
:1007C0004B714B4683B08B7193460723244A070035
:1007D000FFF7ACFD6B46DE1D002304000B253370D4
:1007E00000281BD01F4B98460AE0012332004146E7
:1007F0003800FFF79BFD041E10D03378002B02D188
:10080000013D002DF1D13378C82B09D0200003B071
:10081000F0BCBB46B246A946A046F0BD0024F5E7B1
:10082000104D02235A4629003800FFF77FFD041EB1
:1008300009D10D4B1B68012BE8DD4A4651460B4898
:1008400004F0E2FFE2E74B465A4629003800FFF782
:100850006DFD431E98410400EBE7C046382100209F
:10086000D4150020381D002078270020E46A0010ED
:10087000F0B5C923C646174C00B523700B0C637046
:100880004BBA638013BA636000232381124B0D00BF
:10089000984621000A2317004246FFF747FD4346CA
:1008A000197A23780600994204D00026300080BCD3
:1008B000B846F0BD43465B7A002BF6D10028F5D050
:1008C000064B1B68012BF1DD3A002900044804F0B7
:1008D0009BFFEBE738210020D4150020782700206B
:1008E000FC6A0010F0B54F464646D646C0B51F001C
:1008F000C723354C150023700B0C63704BBA638013
:100900003B1423713B126371002399462372E371F8
:100910002E4B4A469A461A70884682B009235246A0
:1009200021000600A771FFF701FD002803D0534600
:10093000DB79C72B0DD0F3233A002900601C23700C
:1009400003F016F9002002B0E0BCBA46B146A84652
:10095000F0BD29002C333A00601C237003F008F925
:100960007B1C524621003000FFF7E0FC6B46DD1D8A
:100970004B462B700028E5D0154B0B2499460AE016
:1009800001232A0049463000FFF7D0FC0028D9D0C7
:100990002A78C32A02D0013C002CF1D101232A007D
:1009A00049463000FFF7C2FC0028CBD0094B1B683A
:1009B000012B01DC0120C6E73A004146064804F05D
:1009C00023FF0120BFE7C04638210020D4150020B6
:1009D000381D002078270020106B001070B52B4DBB
:1009E000040028002A4B0722002182B008C003F02F
:1009F000B9F8284E0B23320029002000FFF796FC9F
:100A0000002803D032792B789A4221D0019D802290
:100A10005200200020492A43FFF72AFF002802D174
:100A2000002002B070BDD021200001AA4901FFF7CB
:100A300059FE0028F4D08022D021019B52021A4393
:100A400020004901FFF714FF431E9841C0B2E8E7B8
:100A50007379002BDAD10F22B3799343F02BD5D1E0
:100A6000327AF37912021A43737AB57A1B0413436C
:100A70002D061D43094B01951B68012BC7DD2A007C
:100A80000549074804F0C0FEC1E7C04638210020F0
:100A9000CA001408D415002008140000782700208C
:100AA000D06A001070B5134B134C144E23600BBA70
:100AB00063600023320023810D000A332100FFF719
:100AC00035FC317A227803000020914200D070BDBD
:100AD000727A002AFBD1002BF9D0094B1B68012B3D
:100AE00001DC0120F3E72A000648074904F08CFEE8
:100AF0000120ECE7C902010838210020D4150020AC
:100B000078270020FC6A00100801020070B5134B22
:100B1000134C144E23600BBA636000233200238110
:100B20000D000A332100FFF701FC317A227803001F
:100B30000020914200D070BD727A002AFBD1002BB8
:100B4000F9D0094B1B68012B01DC0120F3E72A00D7
:100B50000648074904F058FE0120ECE7C9020100ED
:100B600038210020D415002078270020FC6A0010CE
:100B700000010200F0B506000B2583B008E0FFF786
:100B8000CFFBFA239B00C418FFF7CAFBA042FBD39C
:100B900030005B4901AAFFF7A5FD002802D0019BA8
:100BA000002B05DB013D002DE9D1002003B0F0BD95
:100BB0003000544901AAFFF795FD0028F5D0019BAC
:100BC000DB0719D40425504F08E0FFF7A9FBFA23EF
:100BD0009B00C418FFF7A4FBA042FBD330004B4995
:100BE00001AAFFF77FFD002802D0019BBB4203D082
:100BF000013D002DE9D1D8E7454C464B464D2360D9
:100C0000464B2A00636000232100238130000A3311
:100C1000FFF78CFB2A7A23789A42C6D16B7A002B95
:100C2000C3D10028C1D03E4F3B68012B04DD3D48B5
:100C30003D4A3E4904F0E8FD3D4B2A0023603D4B10
:100C4000210063600023300023810A33FFF76EFB2D
:100C50002A7A23789A42A8D16B7A002BA5D1002852
:100C6000A3D03B68012B06DD8122A5212D4852002F
:100C7000490104F0C9FD304B2A0023602F4B2100AD
:100C800063600023300023810A33FFF74FFB2A7A89
:100C900023789A4200D088E76B7A002B00D084E753
:100CA000002800D181E73B68012B04DD1D48244A60
:100CB000164904F0A9FD1525224F07E0FFF730FB88
:100CC000214BC418FFF72CFB8442FBD83000174996
:100CD00001AAFFF707FD002802D0019BBB4203D009
:100CE000013D002DEAD160E7002230000F49FFF7F7
:100CF000BFFD002800D158E73000FFF76FFE55E731
:100D000014100000BC0702009ED0AD100C000C00B7
:100D100038210020C900108CD41500201352133044
:100D200078270020FC6A0010301352138C1000004A
:100D3000C90014A000000102C90C000CEF522F6181
:100D4000612F52EF3626530210270000F0B5364CC3
:100D500005002000354B0722002193B008C002F0A7
:100D600001FF334F0B233A0021002800FFF7DEFA82
:100D7000002803D03A7923789A4222D0C027310044
:100D8000BF0208232800394306AAFFF703FD08AE77
:100D9000002832D1002504ACB37972793179254825
:100DA00004F032FD6679A37862782178029626797C
:100DB00021480196E478009404F026FD280013B041
:100DC000F0BD7B79002BD9D10F22BB799343F02B57
:100DD000D4D13A7AFB7912021A437B7ABE7A1B0489
:100DE000134336061E43154B1B68012BC6DD32002C
:100DF0001349144804F008FDC0E76B46998B320094
:100E0000282328003943FFF7C5FC0028C2D06B46D1
:100E1000598B04AC0623280022003943FFF7BAFCA3
:100E2000431E9841C5B2B7E738210020CA0C00081C
:100E3000D4150020286B00103C6B00107827002090
:100E400008000C00D06A0010F0B5FF24050008333C
:100E500018042404120220400A431B0A02431B0602
:100E600083B0280021491A43FFF702FD002802D170
:100E7000002003B0F0BD1E4C1E4B1F4E236080238C
:100E80009B04636000233200238121000A33280081
:100E9000FFF74CFA327A23789A42E9D1737A002B21
:100EA000E6D10028E4D0154B1B68012B04DD02229B
:100EB0001348144904F0A8FC652602270AE0013E05
:100EC000002ED5D0FFF72CFA0A300400FFF728FADD
:100ED0008442FBD828000B4901AAFFF703FC002835
:100EE000EDD0019B3B42EAD10120C2E78C1000000B
:100EF00038210020C9001078D41500207827002060
:100F0000FC6A001078100000F0B545465746DE46F2
:100F10004E46E0B58DB01700179A1D0080460C00B4
:100F20000833002A04D01300189A94466344083307
:100F3000D8B200048446E2B292460022180A0006A3
:100F4000814660460B927F322240260A12023243CB
:100F50000243484602430A92310052464046FFF798
:100F600073FF002800D09CE0002399466F4B1B685C
:100F7000012B00DC8BE08023210099436C4B1A6825
:100F8000002A05D1C8E09A680833002A00D1C3E0DE
:100F90009142F8D15968674B1A68002A05D1BFE021
:100FA0009A680833002A00D1BAE09642F8D15B680B
:100FB0009C467F22534693435F4A1068002805D120
:100FC000ACE090680832002800D1A7E08342F8D155
:100FD0005268179B0192049353462200029357488C
:100FE00063460395009604F00FFC554B9A46554B0B
:100FF00051461800079304F007FC002D1FDD0F2356
:1010000098466B1E0693504B00249B464F4E395D0D
:101010003000013404F0F8FBA54210D043462342CF
:10102000F5D1069BA3423AD05146584604F0ECFB5A
:10103000395D3000013404F0E7FBA542EED10A200F
:1010400004F00EFB169B002B21D05146079804F0AC
:10105000DBFB179B002B17DD013B00240F25984677
:101060003A4E394F169B3000195D04F0CDFB179BAB
:101070000134A34208D02542F4D1A04553D05146B3
:10108000380004F0C1FBEDE70A2004F0E9FA484615
:101090000DB0F0BCBB46B246A946A046F0BD2C49F7
:1010A000C3E740462B4909AAFFF71CFB002800D1E3
:1010B0005AE7099B40469B460AAA08235946FFF770
:1010C00011FC002800D14FE708235B4499463A0001
:1010D0002B0049464046FFF705FC002800D143E7B6
:1010E000169B002B0BD0179B002B08D0189940465D
:1010F000169A4944FFF7F6FB002800D134E75B4617
:101100009A00022340461A431349FFF7B1FB431EDE
:101110009841C3B2994629E70D493CE70C4A58E784
:101120000B4B9C4645E70A49AAE7C04678270020B2
:10113000540200202C0200201C020020706B0010C2
:101140006C6B0010C06A0010CC6A0010C46A0010FA
:10115000106D0010000415006C10000010B51C008C
:10116000FFF718FB002800D0200010BDF8B51E4D79
:10117000040028001D4B0722002108C002F0F2FCE9
:101180001B4F0B233A0029002000FFF7CFF800285F
:1011900003D03A792B789A4209D0022220003243B8
:1011A0001449FFF765FB431E9841C0B2F8BD7B7937
:1011B000002BF2D10F22BB799343F02BEDD13A7A79
:1011C000FB7912021A437B7ABE7A1B04134336065C
:1011D0001E43094B1B68012BDFDD32000549074820
:1011E00004F012FBD9E7C04638210020CA00107075
:1011F000D41500207010000078270020D06A00105D
:1012000070B5A0B0140006000D004122002105A811
:1012100002F0A8FC002C1BD0552014492922684458
:1012200002F0A6FC5A202900684405F01DFA2100AE
:1012300005A805F019FA0023942102930193009365
:1012400030006A3305AA4900FFF75EFE20B070BD8A
:10125000552029220649684402F08AFC5A202900B8
:10126000684405F001FA034CE1E7C046FC6E00104B
:10127000D06E0010106D0010F0B50400324D002942
:1012800007D0E868002300283ED000260727012069
:1012900006E0D023EB58002B34D007260A2708207D
:1012A000C300191A89006918C96800292CD0B01C1C
:1012B000C300191A89006918C968002924D00336A7
:1012C000BE421CDA2B6E002B2BD0EB6F002B2BD0E9
:1012D0009823EB58002B2AD0B423EB58002B29D0AD
:1012E000072F0CD0D023EB58002B0BD0EC23EB585E
:1012F000002B22D084235B00EB58002B20D0012050
:101300004042F0BD072038231B1A9B00EB189A615E
:1013100001221C810D4CDA6021884D1C25805981E9
:10132000EFE703201823EFE704202023ECE7052054
:101330002823E9E706203023E6E708204023E3E7F7
:1013400009204833E0E7C0461C1C0020BE020020F4
:10135000F0B5CE464746992380B50600150089B002
:101360005B0099423DD0CB4B99421CD092239B000D
:10137000994200D1B8E0C84B994200D080E0137A7E
:10138000092B0BD8577A092F08D8DC00E41AC34A76
:10139000A4001419E368022B00D1FDE109B0C0BC20
:1013A000B946B046F0BD11780929F7D8CA00BB4B41
:1013B000521A92009B18DA68012AEFD10132DA60E2
:1013C00005AA062900D908E2117000215B89517035
:1013D00053800291019100910423B149FFF794FDDC
:1013E000DCE7AE4CE368012B00D1B9E1A56A012D21
:1013F00000D198E1636C012B00D175E1236E012BC4
:1014000000D151E1E36F012B00D123E19823E35890
:10141000012B00D1FEE0B423E358012B00D1D9E029
:10142000D023E358012B00D1B4E0EC23E358012B87
:1014300000D18FE084235B00E358012BAED104334D
:10144000FF33E05A033B05ADFF3B2B80FFF736F936
:1014500001235B42688006930A332B81FD33E35AF4
:10146000FC346B812B0006CB06C400232A000293B8
:1014700001930093300087490C33FFF745FD8DE75A
:10148000884B994200D089E7177B092F00D985E75F
:10149000FB009846814CDB1B9B00E318DA68042AAA
:1014A00000D07BE79B69002B03D008216A5E3900DE
:1014B00098470822AB5E002B00DC6FE701235B42FC
:1014C000059343460021DB1B9B00E418638905AAB2
:1014D0005171D3801771082302910191009130005E
:1014E0007049FFF711FD59E7137B9846092B00D986
:1014F00054E74246DB009F1A684CBF00E719994643
:10150000FB68022B00D049E708222900380002F0CE
:101510002FFBBB69002B04D008216A5E30004146D6
:10152000984701235B420593434605AA4046137141
:101530004B4600211B1A9B005171E3185B89300058
:10154000D380029101910091922108238900FFF735
:10155000DBFC23E7E73305ADE05AE63B2B80FFF7E2
:10156000ADF801235B426880069309332B81E23397
:10157000E35A2A006B812300E03303CA03C300232C
:101580002A00029301930093300042490C33FFF785
:10159000BBFC4FE7CB3305ADE05ACA3B2B80FFF7CE
:1015A0008DF801235B426880069308332B81C73393
:1015B000E35A2A006B812300C43303CA03C3002308
:1015C0002A00029301930093300032490C33FFF755
:1015D0009BFC2AE7AF3305ADE05AAE3B2B80FFF70B
:1015E0006DF801235B426880069307332B81AC338F
:1015F000E35A2A006B812300A83303CA03C30023E4
:101600002A00029301930093300022490C33FFF724
:101610007BFC05E7933305ADE05A923B2B80FFF747
:101620004DF801235B426880069306332B8191338A
:10163000E35A2A006B8123008C3303CA03C30023BF
:101640002A00029301930093300012490C33FFF7F4
:101650005BFCE0E6773305ADE05A763B2B80FFF785
:101660002DF801235B426880069305332B81763386
:10167000E35A2A006B812300703303CA03C300239B
:101680002A00029301930093300002490C33FFF7C4
:101690003BFCBBE641020000430200001C1C002092
:1016A00042020000460200005B3305ADE05A5A3B9F
:1016B0002B80FFF703F801235B4268800693043315
:1016C0002B815B33E35A2A006B812300543303CA16
:1016D00003C300232A000293019300933000424980
:1016E0000C33FFF711FC8DE6022705AD3F33E05ABE
:1016F0002F80FEF7E3FF01235B42688006932F8172
:101700004333E35A2A006B812300383303CA03C3EF
:1017100000232A00029301930093300032490C33D6
:10172000FFF7F2FB6AE6022305AFA08C3B80FEF7D1
:10173000C5FF01235B42788006933D81E38C3A002C
:101740007B8123001C3303CA03C300233A000293A6
:1017500001930093300024490C33FFF7D5FB49E691
:1017600005AD013320892B80FEF7A8FF01235B42E2
:101770006880069300232B81628929006A812200F8
:1017800081C981C20293019300932A003000164957
:101790000C33FFF7B9FB29E6FB00DB1B9B009846E7
:1017A000904429000822404602F0E2F94246A3692B
:1017B000414693610423D360053B05930023498987
:1017C00005AA5371D18017713000029301930093E1
:1017D00006490833FFF798FBE0E5012040420590F9
:1017E000117100215171A9E641020000460200007A
:1017F000F0B5DE4657464E464546BA4BE0B51F6843
:10180000002397B03222002109A8079302F0AAF919
:10181000B54E3368012B02DDB44803F06DFF38008C
:10182000B34906AAFEF75EFF002803D00123069AFB
:10183000134233D108AD2C8864BAA4B296235B005E
:101840009C4244D099235B009C4249D0A94B9C42C6
:1018500042D0A94B9C4200D171E092239B009C4254
:1018600000D18EE0A54B9846A54A3368944200D03B
:101870003368002B39D1424621003800FFF768FD5C
:101880003368012B03DD9F499F4803F0BDFF17B06C
:10189000F0BCBB46B246A946A046F0BD9B490A42F1
:1018A000C8D0380092499A43FEF7E2FF0028C1D021
:1018B0003800974907AAFEF715FF08AD002802D0A7
:1018C000079900293FD12C8864BAA4B2B6E78B4BA4
:1018D000984696246400CBE7884B9846854CC7E72A
:1018E000864B984699246400C2E700239B462B78D8
:1018F00099466B78484619009A466D88FEF764FE53
:10190000030009AA49460192009352462B008148E0
:1019100003F07AFF424621003800FFF719FD5B46CD
:10192000002BADD03800FFF721FC3368002802D12E
:10193000012BA8DCABE7012BA9DD7749A4E76F4BAE
:1019400098466D4C94E704232A003800FFF706FC04
:101950000028B8D02B885CBA99466B88A4B2082BB3
:1019600014D16E4B9945B2D06D4B9945B8D06D4BA3
:101970009945B1D06C4B9945E1D06C4B994500D05D
:1019800070E75E4B98469224A40071E7083B142B45
:1019900000D914230799594A380008319046FFF7B7
:1019A000DDFB5E4B002800D187E0994533D05C4BCE
:1019B000994546D05B4B99456FD05B4B994500D11B
:1019C000C4E05A4B994500D1E4E0594B994500D009
:1019D00037E1434608229B5E42465649127B09A8DE
:1019E00003F056FC43461B7B092B0AD8D900CB1ABF
:1019F0004146514A9B00D218079B498908335B181E
:101A000053613368002B00D017E1424638003C494F
:101A1000FFF79EFC86E743461B68002B3BD0012B5B
:101A200000D100E1454909A803F032FC3368002BDE
:101A300000D0DBE09621424638004900FFF788FCE1
:101A400070E7FF20434601001C685A68230A0340E0
:101A500021408C469A46130E0593130C03400493C1
:101A6000130A02400292220E240C034020400393EA
:101A70000192534600906246314909A803F008FCE0
:101A80003368002B00D0C9E0992142463800490054
:101A9000FFF75EFC46E72B49C5E743462A491A682B
:101AA00009A803F0F5FB3368002B00D0BDE04246E7
:101AB00038001049FFF74CFC34E7994500D108E79E
:101AC000174B994500D10DE7164B994500D105E715
:101AD000154B994500D134E7144B994500D0C3E626
:101AE00051E7C046341D0020782700206C6C0010A0
:101AF000701000004102000043020000C0150020E9
:101B000046020000646C0010146D0010FC3F0000E1
:101B100084100000EC6C0010606C0010012C0000C0
:101B200001320000024100000243000002480000B0
:101B300002460000DC6C00101C1C00203C6C0010F5
:101B4000786C0010446C0010986C00104346FF2421
:101B500058682200030A2340994643465B7A0240B4
:101B6000049343461B7A3D49039343465B880293A3
:101B7000030E000C0440019300944B4609A803F0A7
:101B800087FB3368002B54D1424638003449FFF7B5
:101B9000DFFBC7E64346FF2458682200030A2340C0
:101BA000994643460240924608229B5E2D49049383
:101BB00043461B7B5246039343465B880293030EC6
:101BC000000C0440019300944B4609A803F060FB0D
:101BD00043461B7B092B0ED93368002B19D1922168
:101BE000424638008900FFF7B3FB9BE696240123A9
:101BF00064009B467BE6D900CB1A41461A4A9B00FB
:101C0000D218079B498908335B1853613368002B4E
:101C1000E5D092240123A4009B4668E69924012381
:101C200064009B4663E61149FDE60123104C9B4688
:101C30005DE601230A4C9B4659E601230D4C9B4669
:101C400055E63368002B05D1424621003800FFF7E6
:101C50007FFB67E601239B4649E6C046A06C001067
:101C600043020000BC6C00101C1C0020546C0010CF
:101C70004102000046020000F0B5CE46474680B55E
:101C800006000D00140089B0002A3CDD334B3448B7
:101C900003F0BAFD334B344F9946EB0098465B1B7B
:101CA0009B00FB1859694A4623003000FFF756FA9B
:101CB000002823D02D4B1B68012B05DD10222100AD
:101CC00048462B4BFEF7AAFC434600215B1B04AAA7
:101CD0009B0051701570FF1838687B685480059020
:101CE00093607B89D1819381502302934B463000CE
:101CF0000093204910230194FFF706F909B0C0BCF6
:101D0000B946B046F0BD13000E331CDA134B14482D
:101D100003F07AFD0021EB00134C5B1B9B00E418E1
:101D2000638904AA157051705380300002910191AB
:101D3000009104231049FFF7E7F81C22002120003E
:101D400001F010FFDAE70D4B52429200D3580448DD
:101D5000220003F059FD002CD0D0DBE7106D0010FD
:101D60002C6D0010600F00201C1C00207827002024
:101D70006C6B0010C502000049020000C002002088
:101D8000F0B5CE46474680B506000D00140089B078
:101D9000002A36DD274B284803F036FD274B284F15
:101DA0009946EB0098465B1B9B00FB1859694A4615
:101DB00023003000FFF7D2F900281DD0214B1B680B
:101DC000012B2FDC434600215B1B9B00FF1804AA5C
:101DD0007B6851701570386893607B89D1819381DD
:101DE0004423548002934B46059000933000102307
:101DF00015490194FFF788F809B0C0BCB946B04650
:101E0000F0BD13000E3308DB104B52429200D35842
:101E10000948220003F0F8FCEEE7064B064803F001
:101E2000F3FCE9E7102221004846094BFEF7F6FBD8
:101E3000C8E7C046106D0010486D0010600F00200C
:101E40001C1C002078270020C7020000C0020020D0
:101E50006C6B0010094A83009A1810B51468402270
:101E6000544080322240064CC000A44663441A60AD
:101E7000044B9C466044416010BDC04604C0014014
:101E800004D0014000400140074B8000C3181B688C
:101E9000C90092000A435A400C231340034A944657
:101EA000604403607047C04604C0014004D0014054
:101EB0000123D0228340120693629361094A830072
:101EC0009A1811684022514080320A400649C000E9
:101ED0008C4663441A60054B9C460523604443606E
:101EE0007047C04604C0014004D00140004001409A
:101EF0000FB400B5084883B003F0FEFB049B002B31
:101F000007D005A91800019103F0E8F9034803F090
:101F1000F3FB012003F0FAF9346E0010806A001020
:101F200070B5EFF3108C72B60D4D2B68002BFCD002
:101F3000BFF35F8F0724CB08C618C05C01230C4099
:101F4000A3401C000440034207D118433070BFF384
:101F50005F8F2C608CF3108870BD1000FFF7C8FFF6
:101F60002C0100D0044A1078431CDBB2172B00D997
:101F7000102313707047C046FC0200200021044B60
:101F8000044ABFF35F8F02C39342FAD17047C04641
:101F9000000100D0800100D0054B064A1360064ABC
:101FA000136053609360D360136153619361704712
:101FB0008080808000E400E004E400E01F231840FB
:101FC0001E3B8340002905D0C021044A49005350DC
:101FD00013607047802201498B50FAE700E100E06E
:101FE00070B50D00EFF3108672B60F4A1368002B20
:101FF000FCD0BFF35F8F0D4B10309B6884001B59E2
:102000000B4A934203D09D4201D000F0D3FD074B11
:102010009B681D51BFF35F8FBFF35F8F0022024BA0
:102020001A6086F3108870BD240100D000ED00E036
:10203000C1010010024B9C46614489000160704759
:102040004000003470B5114C114DAC420FD2FF2648
:102050002368002B0CD0FFF785FF01002000FFF75D
:10206000E9FFA680BFF35F8F0834AC42F0D370BDA8
:10207000FFF778FF01002000FFF7DCFF2671BFF3B8
:102080005F8F0834AC42E3D3F1E7C04684080020F8
:102090008C0800200A4B1968EFF3108072B60A68AA
:1020A000002AFCD0BFF35F8F1B68BFF35F8F002255
:1020B0001A6080F3108840BF002000217047C0469E
:1020C000181C0020F0B5DE4657464E464546E0B5A2
:1020D00083B0EFF3058203231340B54A99005258A9
:1020E0000091904601229A409346B24B1A60B24B3F
:1020F00001935B46B1484363434608229B5E994681
:10210000002B3ADA43469B881BB2002B00DB9DE094
:1021100043469B79002B00D0E1E0434608241C5F36
:10212000002C20DB43465A6963001B19DB00D318DF
:102130009D68DC686B1C00D103E1A04800998446CF
:102140006144826A0B69AE1A9B1A9E4213D35A46A7
:10215000036A1A420FD0994800F040FB8C4202DC1F
:10216000C7D18542C5D940BF03B0F0BCBB46B2461B
:10217000A946A046F0BD0D61EDE7424652695B00FD
:1021800092464B44DB009A4453469E68DF6800F059
:1021900025FB8F42B6DC00D1F8E0002F00DAD9E051
:1021A0005246534654691B69019A934200D1CCE0D0
:1021B000414652460820085E528800042100104320
:1021C000984704000D0023002B4300D1C2E0002DEE
:1021D00000DBDFE030003900001BA9415346986066
:1021E000D96000229A5E002A00DA8BE743465D69D7
:1021F00053009C18E4002C19A768E4688C4200DDA9
:1022000080E702D1874200D97CE746463281083612
:102210000DE08C4200D1C6E01E000023F25E002AD1
:102220000ADB53009C18E4002C19A768E4689B188B
:10223000DB00EB188C42ECDD53461A804B463380B2
:1022400043469B881BB2002B00DA61E743461A69BC
:10225000EFF3108172B61368002BFCD0BFF35F8FD1
:1022600043469E88012342465B42938036B21369FF
:10227000BFF35F8F00221A6081F31088002E00DA0E
:1022800046E743465D69083342469C467700BF19DE
:10229000FF00EF19BB68604698460823D15E92465E
:1022A000FC68002907DA0EE0A24246D0180000239D
:1022B000C15E002906DB4B005B18DB00EB18DA6817
:1022C000A242F1DD524606800023FE5E3980002ED8
:1022D000DCDA904643469B79002B00D11DE70023B2
:1022E00042469371434646460821595E08364B1CC8
:1022F00000D138E747468946556902E006004B1C85
:1023000018D04B005B18DB00E8180A008C46E95E29
:1023100043881BB2002BF1DA01235B42DC17836098
:10232000C4604A4503D031803B8903803A81E1464D
:102330004B1CE6D1B8464C46F2E69A684245B5D900
:10234000C0E7631C00D0F8E605E720002369984742
:10235000002825D1534642461B8813811269EFF3AA
:10236000108372B611680029FCD0BFF35F8F42461C
:10237000514652880A804246494651801269BFF34D
:102380005F8F0021116083F31088BBE6864200D87E
:1023900003E7B7E6094800F021FA001969411DE793
:1023A000656824680FE7874200D835E744E7C046F0
:1023B000B01500203C700540C520001000400540CD
:1023C00070B52E4C2569002D04D00A212C48FFF74A
:1023D00031FE70BD2B4E0321300000F0F5F9E660B0
:1023E000FFF7C0FD284B03229C46D02322701B061A
:1023F0001B6801216370254B6044A3600F2380009C
:1024000020610220638063694942A1801980023102
:10241000198647311D83585218315A5275325C392A
:1024200099521832013199521832013199521832A9
:1024300001319952083518329D52023118329952A1
:102440001832013199521832013199521832013142
:1024500099521832013199521832013199520C4B6C
:102460000C49DC6001303562FFF7BAFD0121032021
:10247000FFF7A4FD084B1D60A7E7C046000300203E
:10248000181C00200040054040000034FFFF1000F1
:10249000B0150020C52000103860054070B501005F
:1024A0000469EFF3108C72B620680028FCD0BFF3EB
:1024B0005F8F02200D5E4C6968004019C00024182F
:1024C000002D37DB208848800869BFF35F8F002626
:1024D00006608CF31088E360638804980133206100
:1024E0005B0405985B0CA26060611A1C002B1FD076
:1024F00093B22804628018430A69EFF3108C72B615
:102500001368002BFCD0BFF35F8F8B8823808D80F6
:102510000B69BFF35F8F00221A608CF310880B7871
:1025200001329A40CB6808498C4663441A6070BDFA
:102530000122DDE70B69BFF35F8F00221A608CF385
:10254000108801204042F2E73C20000010B543898A
:102550000A1493421ADD53009B184269DB00D3181A
:102560000469EFF3108C72B62268002AFCD0BFF326
:102570005F8F5A88090494B2090C8A4208D0036913
:10258000BFF35F8F00221A608CF31088002010BD0B
:102590008022120214435C80012302698371BFF31D
:1025A0005F8F002111608CF31088044902788C46FB
:1025B0009340C268012062441360E8E73C200000B9
:1025C000F0B504000D0006267642F717C646361908
:1025D0006F4100B582B08F4214D811D000F006F9D7
:1025E00032003B00121A8B41002B17DC002B47D026
:1025F0002000290000F038F902B080BCB846F0BDD8
:102600008642EBD90022002316001F0000F0EEF8EE
:1026100032003B00121A8B41002BE7DD00F0E6F898
:1026200032003B00121A8B41002B0ADB002301937E
:10263000154B3200009315483B00FFF72FFF002891
:10264000D6DB00239C46B046114A124E736A9F4265
:1026500004D8B16A8845CBD99F42C9D11168EFF33C
:10266000108072B60B68002BFCD0BFF35F8F13682D
:10267000BFF35F8F6146196080F3108820BFE5E7E4
:10268000002AB5D0CAE7C0469520001000030020FC
:10269000181C00200040054070B5060000F0A6F8A8
:1026A000FA2204000D00002330000021920001F006
:1026B000EFF98023001969411B06994202D30120DA
:1026C00002494042FFF77CFF70BDC046FFFFFF7F1D
:1026D000F0B5D6464F464646C0B504000D0082B060
:1026E000EFF305878946002F0ED0344900204B6A4E
:1026F000AB4203D38A6A0130A24226D302B0E0BCC7
:10270000BA46B146A846F0BD2D4B9846DB689A46BE
:10271000434650461E7800F061F80B005146020017
:102720000436B600715820008E1A2900801A99418B
:102730008F4211DC0ED020BF204A0020536A4B4547
:10274000DCD3926A0130A242D8D25B1B5A1E93415D
:10275000D8B2D3E78642EED900F048F822002B0029
:10276000121A8B41002B1ADB00230193154B220018
:10277000009340462B00FFF791FE011E0FDD0F4B2B
:102780005A6A4A4517D39B6AA34212D34046FFF7C1
:10279000DDFE0A4A0020536A4B45AFD3D1E7074A12
:1027A0000020536A4B45A9D3926A0120A242A5D2C8
:1027B000CBE74A45EAD120BFE8E7C04600400540E4
:1027C000000300209520001010B5024A0248FFF7D0
:1027D000A7FB10BD446E0010340F00200300416AB7
:1027E0000A00986A596A8A42FAD17047034B596ABB
:1027F0000A00986A596A9142FAD170470040054030
:1028000070B504000D00174A536A1900966A536A9E
:102810008B42FAD13000190024184D41AB4216D832
:1028200013D0104A2B00526A954203D90D494A6AC7
:102830009A42FCD39A4207D10A4A02E0516A99426D
:1028400002D1916AA142F9D370BDA642E9D9054BE4
:102850005B6A1C005A1CEFD0012301246442E51777
:102860005B42E3E700400540064A536A9942FCD8C0
:1028700007D1044B02E05A6A914202D19A6A82421D
:10288000F9D3704700400540F8B5DE464E4657463E
:102890004546E0B58B4605000A991800160000F081
:1028A000DBFA0A9B6C001F02324B64199C46A400A1
:1028B0006444636881469F4200D967602B1FDBB286
:1028C0009846012B30D9C02380229B01E3181201C6
:1028D0001A60294BAD0059599A4600291BD1730142
:1028E000E026226853401E40802342465B01E318E5
:1028F0001E60012A30D9802380229B01E318120137
:102900001A6053464A4667605A51F0BCBB46B2460D
:10291000A946A046F8BD586900F09EFA0130430070
:102920001B18033BFDD2DAE75B46012BCBD1C0235A
:1029300003229B01E3181A60023AA3681A42FCD0F2
:102940007301E0262268AD0053401E4080230A4AEE
:102950005B019246E3181E605A46216851400322EB
:102960000A401A6001225B469A40A3681A42FCD0D2
:10297000C1E7C04600800040380F0020F0B5464651
:102980004F46D646C0B51F00344B44009C46241821
:10299000A4006444636888461600FF2B02D8802395
:1029A0005B006360031FDBB29A46012B30D9C02362
:1029B00080229B01E31812011A60294B85005959A6
:1029C000994600291BD17301E026226853401E401E
:1029D000802352465B01E3181E60012A30D9802310
:1029E00080229B01E31812011A6080235B00636060
:1029F0004B465F51E0BCBA46B146A846F0BD5869A7
:102A000000F02AFA013043001B18033BFDD2DAE73D
:102A10004346012BCBD1C02303229B01E3181A604C
:102A2000023AA3681A42FCD07301E02622688500AE
:102A300053401E4080230A4A5B019146E3181E6002
:102A400042462168514003220A401A60012342464F
:102A50009340A2681342FCD0C1E7C046008000400A
:102A6000380F0020014B8000C0587047380F0020FD
:102A7000F8B5040021481E0017000D0000F0ECF925
:102A80000100380000F0E8F9069B36041B031E43E2
:102A90002368002B20DB1A4B1A49E3185A1E934176
:102AA0008022920194465B421B0B174A1B0363442E
:102AB0001360164A13601F000A689743FBD1144B3A
:102AC0002560E2182123A06013602368002BFCDA44
:102AD0000823E6601360F8BD3F2322681340AB4231
:102AE000D9D1A3681B051B0D8342D4D1EE22E36824
:102AF000D2021340B342CED1EDE7C046001BB7006F
:102B00000040FDBF08C0004000E0004000F0004071
:102B1000043000008023024A9B000B43D3627047BD
:102B200000800540142310B50100188804331B8869
:102B3000984710BD162310B50100188802331B8872
:102B4000984710BDF8B54746CE4680B50F1E19D040
:102B500014239946043304000025012698464B4669
:102B60001888434621681B88984701C4431E984132
:102B7000013540420640AF42F1D13000C0BCB946F9
:102B8000B046F8BD0126F8E7AA23064A1B011360E8
:102B90008D235B00D3600449044B19605368002BFC
:102BA000FCDA70470040024000B0FA0000600240CA
:102BB0007047C04610B50148FFF79AF9686E0010DB
:102BC00070B5074D074EB54209D20024013E761B71
:102BD000B60808CD984723000134B342F9D170BD3F
:102BE000C0690010FC690010054B064A06491A60CE
:102BF000064A074B1A6010000B689843FBD17047D8
:102C000000E00040BFCDFBFE08C00040FE7F3C005E
:102C100000F00040044BDB6C002B03D18022034BFF
:102C2000D2021A607047C046000011504C2011506B
:102C3000044A054B1A60054A1368DB018033FBD157
:102C40007047C046FFFFFF0100F0004008C0004091
:102C50004022034B9A675A671A67DA667047C04684
:102C600000F0014010B5FFF789F910BDF8B527490C
:102C7000274C284D641AA6103200302E00D930227D
:102C80002800920000F074FFBC2C3BD830202F238A
:102C90002C196407204A801BE40F9B1B052B16D9B7
:102CA0003700002C02D0B300771CEA50001B331908
:102CB0009B004108EB18C900C9181A605A60083314
:102CC0009942FAD1012303421CD09843C619B3009C
:102CD000EA50731C2F2E15D09B00EA50B31C2E2EE9
:102CE00010D09B00EA50F31C2D2E0BD09B00EA5015
:102CF000331D2C2E06D09B00EA50731D2B2E01D0C5
:102D00009B00EA50054B9D60F8BDC04600010010D5
:102D1000C001001000000020C101001000ED00E023
:102D2000002310B5294C82B0A367FFF72DFF0122C5
:102D3000274B1A60636C012BFCD10322254B1A60D0
:102D4000224A936B012BFCD1013300930121224ACB
:102D500022480433FFF78CFE052301210093204A0B
:102D60002048FFF785FE0022022104201E4BFFF7BA
:102D700005FE0022012105201C4BFFF7FFFD00226C
:102D8000002107201A4BFFF7F9FD0022002108203F
:102D9000174BFFF7F3FD8023DB0000930022002197
:102DA0000920134BFFF770FD0022104B0021062075
:102DB000FFF7E4FD0420FFF755FE0E4900F04CF844
:102DC00001000020FFF7A6FE02B010BD0080004009
:102DD0003CB0004030B00040002F685900800240F5
:102DE000008C864700C00240001BB70040597307A3
:102DF000006CDC0240420F0001480421014B1847DF
:102E000020030020452B0010124A936F9B0815D217
:102E10009066D166002905D0FFE7FFE7FFE7516F15
:102E2000106F704704B580210906C2175140002871
:102E300000D0C84303F0ACFD002104BDF0B5146E12
:102E4000556E576F166FFFF7E3FF146655665767A9
:102E50001667F0BD000000D0114A936F9B0813D293
:102E600010665166002905D0FFE7FFE7FFE7516FC5
:102E7000106F704704B5002801D00020C04303F054
:102E800087FD002104BDC046F0B5146E556E576F26
:102E9000166FFFF7E5FF1466556657671667F0BDB6
:102EA000000000D094464A4A926F9208624601D2CE
:102EB00028E0C046F0B5464E346E756E776F366FBB
:102EC00000F020F89446424A146655665767166724
:102ED0006246F0BD94463E4A926F9208624601D225
:102EE00054E0C046F0B53A4E346E756E776F366F6B
:102EF00000F04CF89446364A1466556657671667D4
:102F00006246F0BD002B24DB11D000293EDA00B56B
:102F1000C943404200D1013100F038F8C943404272
:102F200000D10131DB43524200D1013300BD002A00
:102F3000EBD1002801D1002905D00020C90FC90715
:102F400001D1C043410800B503F01AFD002200235F
:102F500000BD00B500290ADBDB43524200D101333A
:102F600000F014F8C943404200D1013100BDC9430B
:102F7000404200D10131DB43524200D1013300F025
:102F800005F8DB43524200D1013300BD002923D1B3
:102F9000002B18D1002A0CD0BC460D4F38667A663B
:102FA00000210023FFE7FFE7FFE77A6F386F6746EE
:102FB0007047002801D00748010000B503F0E0FC8D
:102FC0000022002300BD02000B00002000217047FA
:102FD000000000D0FFFFFFFF002B00D0BFE0130C6C
:102FE00028D1002AE7D080B4114F39667A66FFE70E
:102FF000FFE730B4040C7B6F396F1B0423433B663F
:103000007A66FFE7FFE7FFE7C04684B27B6F3D6F5C
:103010001B0423433B667A66FFE7FFE7C0460023B5
:103020002C042D0C7A6F386F00196941B0BC7047C1
:10303000000000D0F0B594460025140E01D1120214
:103040000835140F01D112010435940F01D19200FB
:103050000235D40F01D152000135D40B0134254F74
:103060007C66254C3C660E0C93B2FFE7FFE7FFE75A
:103070003C6F6643360C7703BE467343DF0B5B043D
:10308000C01AB941130C7343DB18C91ACE08664342
:10309000360CB64493B273431F0F1B01C01AB941DB
:1030A000130C73431F0B1B05C01AB941860D8F0209
:1030B0003E436643360C092D24DB520A7243801AC4
:1030C0007703460A6643360C16235B1BDE40DF405F
:1030D000BF1964466643821B7046043506330100FF
:1030E000D940A840C01900D30131A24206D2002322
:1030F000F0BD0000000000D0FFFFFFFF121B0130F9
:10310000F3D3F1E709277F1BFE406446A2B2724366
:10311000801A00D20139220C7243130C1204821A55
:1031200099410B007046043513370100F940A8405F
:10313000801900D30131002B02D1A2420AD2F0BD86
:10314000013000D30131121BFAD2013BF8D1A24267
:1031500000D2F0BD013000D30131121BF7E7F0B50A
:103160001C0C00D080E00CB400251C0A04D11B020A
:10317000160E3343120208351C0B04D11B01160F27
:103180003343120104359C0B04D19B00960F33434B
:1031900092000235DC0B02D192185B4101351C0014
:1031A000971864410134464F7C66464C3C660E0CD1
:1031B000FFE7FFE7FFE7C0463C6F6643360C770347
:1031C000BE4697B27743C01B00D20139C01B00D264
:1031D00001399FB27743C91BC91B170C77437E0483
:1031E000FF0B801BB941CE086643360C0C2D33DB38
:1031F000B644120B1F053A431B0B97B27743C01B13
:1032000000D201399FB27743C91B170C77433E04A4
:103210003F0C801BB941860D8F023E436643292730
:103220007F1BFE400C3D7746AF40BF1930BCA2B2B9
:10323000ABB272437343801A9941220C7243130C50
:103240001204801A994102000B000137001BA941AA
:10325000F9D2781E0021F0BD0C277F1BFE40774677
:103260007F0BAF40FF19E0E700245D1C07D0144F2F
:103270007D663966FFE7FFE7FFE7FFE73C6F95B242
:103280009EB265436643401BB141150C1E0C65435D
:10329000664336042F0C3E432D04401BB141994236
:1032A00004D202000B0020000021F0BD01D19042A9
:1032B000F7D3801A994101349942F2D3F6E700001E
:1032C000000000D0FFFFFFFF48404140484018B4D5
:1032D0001B4B5B68FC46019308BD04DF633500109F
:1032E00018B4174B1B68FC46019308BD00DF6D3511
:1032F00000109446134A926F920809D2624618B49D
:103300000F4BDB68FC46019308BD0CDF253800102D
:103310000C4AF0B5146E556E576F166F6246FFF784
:10332000EEFF084A1466556657671667F0BD18B475
:10333000034B9B68FC46019308BD08DFC9360010AB
:10334000100A0020000000D0FFB55040424050401D
:1033500059404B40594000E0FFB5154F4C00640DFB
:1033600003D0BC4204D10C0314D80020090D090578
:103370005C00640D03D0BC4204D11C030AD80022B7
:103380001B0D1B0501264B4009D44B4003D58B4236
:1033900000D18242FFBD9942FCD19042FFBD0B4358
:1033A000DB1803431343F5D0C9434918FFBD0000A0
:1033B000FF07000000B5FFF7CFFF804100BDC0460A
:1033C00000B5FFF7C1FF01D9002000BD012000BDFD
:1033D00000B5FFF7B9FF804100BD012040054A005C
:1033E000121804D85A00121801D800207047012082
:1033F000704700000021002805D17047C1174840E0
:10340000401AFAD0C90713B5064B1B6898470CBC85
:10341000441CA2401005120B0349091B090519435E
:10342000114310BD141C00201F04000010B54C00F7
:10343000620D8023D218DB00D21A5B057E2A10DDD4
:103440009E3A13DACC170903490819435242D14076
:10345000640001341532202A05DAD0400843604365
:1034600010BD002010BD0846604310BDC80FC01835
:10347000013810BD18B4044B5B6AFC46019308BDCB
:1034800024DFD53900100000100A0020132370B586
:103490001D78012D19D014DD1F48FFF74BFB0600E6
:1034A0001E48FFF747FB1E4C80223100200000F031
:1034B0005FFB022D2DD01B48FFF734FB1A4B186021
:1034C00070BD1A4B164CA364F5E7184B144C2360DF
:1034D0006360A360E36023616361A361E3612362CE
:1034E0006362A362E36223636363A363E3632364AE
:1034F0006364A364E36423656365A365E36523668E
:103500006366A366E36623676367A367E367A364F1
:10351000D1E7064BA364CEE75344000053460000B6
:10352000100A00204C330000141C0020313500101C
:1035300007B5604601880A0A0230DF2AFAD1C9B20B
:10354000820804D3028840880004104300E0006829
:10355000014A5050039007BD100A00200FB403BC6D
:103560000CBCF0B50124E407634000E0F0B50C0D9D
:10357000CF0F661E3605891B640503D3C94340423D
:1035800000D30131640D03D0661CF60A07D0E41B9A
:1035900000207F00791C89078912803C24031D0DBF
:1035A000DF0F6E1E36059B1B6D0503D3DB435242B6
:1035B00000D301336D0D03D06E1CF60A07D0ED1B4E
:1035C00000227F007B1C9B079B12803D2D032F1B3D
:1035D000661B58D4A446202E46DA20371400BC407F
:1035E0001D00BD40F24033412A4380185941CB0FA2
:1035F00005D0C943C0430022644250415141624654
:103600004D0D28D10D0D07D100281FD024194041A0
:103610004941013A0D0DF9D0640006D3013000D3C1
:103620000131002C01D140084000013A0BD4941C18
:10363000E40A04D112051144DB071944F0BDD9078F
:10364000204B194300E0D9070020F0BD0029DDD14F
:10365000002CDBD1F0BD0132C6074008CD0728435E
:103660004908002EE1D0D9E73C2E29DA203E403728
:103670001400BC4000D00124F24014431A00BB40A7
:103680001C43D317ACE7AC46202F08DA20360400E1
:10369000B4400D00B540F84039412843A5E73C2F20
:1036A0000CDA203F40360400B44000D00124F8403A
:1036B00004430800B1400C43C117EAE710001900A9
:1036C000002494E70000F07FF0B50C0D661E36056F
:1036D000891BE60A6405640D02D0651CED0A04D05E
:1036E000002001210905803C2403A4461C0D671E0F
:1036F0003F05DB1BE70A6405640D02D0651CED0A7B
:1037000004D0002201231B05803C2403774064443D
:1037100097B484B296B27443070C7E43150C6F4382
:1037200080B26843361802D3012000043F183004E9
:10373000350C00197D41844688B29AB250430C0C76
:1037400062431F0C7C438EB27E43921902D3012642
:103750003604A4191604170C3618674101BC81B24F
:103760009AB25143040C62431B0C5C4380B2584331
:10377000121802D30120000424181004130C40185E
:1037800063412D185E410020474106BC88B293B2C8
:1037900058430C0C6343120C544389B251435B18D9
:1037A00002D301210904641819041A0C0918624192
:1037B0006D1856410020474118BCF902720D1143A3
:1037C000F0026A0D1043ED020A0D03D16D1940415C
:1037D0004941013B124E9B1B7600B3420ED26D0055
:1037E00007D30130002671416646354301D14008B8
:1037F00040001B05C918E4072144F0BD0BDA013372
:1038000006D1013004D101314F0D01D04908F2E752
:10381000E1070020F0BD013631050020EBE7000094
:10382000FF030000F0B51C0D671E3F05DB1BE70A18
:103830006405640D02D0661CF60A04D00022012340
:103840001B05803C2403D0252D060026F6432E665A
:103850001E096E66CE0FF619B44649004F0D02D010
:103860007E1CF60A03D000200021403F3F033E1B90
:10387000B600B444013F7F05C91B49082E6F0136CD
:1038800076089C02950D25437543ED137543AD13E2
:1038900001356D10F603761B0CB4CC02450D2C439C
:1038A000A2B2B3B25A43270C7B43350C6F43A4B288
:1038B0006C431B1902D3012424043F191C041D0C62
:1038C000A4187D4124196D41009A91B2ACB26143B4
:1038D000170C7C432B0C5F4392B25A43A41802D3BB
:1038E00001221204BF182204230C52187B41019CB0
:1038F0006C431B19520ED9010A434401A01A81B22C
:10390000B2B2514303145A43360C734387B2774320
:10391000D617D21900277E4136049B191704160CBE
:103920007F185E417316ED18F30100268033754150
:10393000A90F06D16400690AE8055B0A184309D299
:103940002FE00422944480337541A90AA8059B0AFC
:10395000184326D3404149412404009A019B0D009D
:103960005543641B4343E41A95B286B27543170C62
:103970007E43030C5F4392B25A43B61802D301222E
:103980001204BF183204330C52197B4152429C413D
:10399000002C02D40022013051414008CA071043D4
:1039A000490802B06246D7079210084BD218084B5C
:1039B0009A4203D212058918C919F0BD0020002AC5
:1039C00001DC3900F0BD01331905F5E7FD03000006
:1039D000FE070000002200B5203200F004F80800C5
:1039E00000BD000000220B150AD410B5944600F06B
:1039F00031F81414013400DA0021CB17144C20479D
:103A00000020002170476244343A0CD40C2A07DAB3
:103A100004009140904052422032D440214310BDD6
:103A2000D843D94310BD203207D40C4694405242AB
:103A300020321141D040204310BD0800C917203268
:103A400003D452422032104110BD1800190010BD9D
:103A5000073A00100A0DCC0F531E1B05C91A520558
:103A600003D3C943404200D30131520D03D0531C4C
:103A7000DB0A07D0121B00206400611C8907891231
:103A8000803A1203014BD21A70470000FF03000076
:103A900051434343C9188C46110C83B24B4310B4B5
:103AA000040C614392B280B2504362431C041B0C6D
:103AB000001910BC59411304120CC0185141614443
:103AC00070470000132310B512481C78FFF732F836
:103AD0000100012C0AD003DD80220F4800F048F8D5
:103AE0000E48FFF71FF80E4B186010BD0A4C542209
:103AF000200000F03DF80B4B6365A365E36523668A
:103B00006366A366E36623676367A367E36723626D
:103B1000E361E5E753460000100B00204C33000042
:103B2000141C0020293B001007B5604601880A0AD2
:103B30000230DF2AFAD1C9B2820804D30288408851
:103B40000004104300E00068014A5050039007BD94
:103B5000100B002001480421014B184730030020BE
:103B6000452B0010014B1B68184700003003002054
:103B7000014B5B6818470000300300209A4200D2D6
:103B8000885470477047C046F8B55746DE464E46E3
:103B90004546E0B599460A9B07009A460D9B884624
:103BA00093460B9C9B073BD10C9B9C423DD21E1B1A
:103BB0000B9415000C005E442A004B460135210091
:103BC0002020B847B542F7D1A0460B9C002C20D04E
:103BD000454636195346321B013C185D29004B46B9
:103BE000B847002CF6D12B00350098460D9B9B075B
:103BF0000FD55B46EC1A0C9BA3420AD94646984661
:103C00002A004B46310020200134B8470135444595
:103C1000F6D32800F0BCBB46B246A946A046F8BD84
:103C200016001500002CD3D1E0E71600002CCFD1F0
:103C30001500EEE7F0B54F464646D646C0B584B00F
:103C400098460EAB1B7894469946129B0D9C109F8C
:103C5000119E9A0725D4002E65D1BC4221D20122A3
:103C60001A409246202C00D1E9E00C9A551E3022D1
:103C700002E0202C00D17BE001342A55A742F8D87D
:103C80005246002A0DD0B4420BD20C9A551E302257
:103C9000202C02D171E0202C2DD001342A55B442C1
:103CA000F9D1DA063CD55A052ED4002C28D10F9A2A
:103CB000102A00D1B6E0022A00D1BCE030220C9CD0
:103CC000227001244A46002A65D15A0700D499E09F
:103CD0002B220C9D2A55013403930C9B62460093C2
:103CE000029643460194FFF74FFF04B0E0BCBA468A
:103CF000B146A846F0BD2024DA06EDD55A0503D416
:103D0000A74266D0B44264D00F9A102A71D0022A1A
:103D100057D0202CE0D02200013430250C9FBD5418
:103D2000202CD9D0CEE7012215001D40AA461A4208
:103D300036D04A46002A4AD10C321A4247D1BC42F8
:103D4000A1D2202C91D1202E17D82024DA06C3D559
:103D50005A051BD4202F01D0202ED5D11F220F9D14
:103D6000102D6FD0022DD8D162250C9FBD54D0E705
:103D70005246002A79D0202EBDD92024DA06ABD5B0
:103D80005A0503D4202FE9D0202EE7D00F9A102A0D
:103D9000A2D12024A0E72D220C9D2A5501349BE7B7
:103DA000BC4200D37DE7202C00D05EE7DA06F0D5D8
:103DB0005A05EED4202F62D0202EEAD134001F22E3
:103DC000CDE7202C00D187E722000134CCE7013E6B
:103DD000B5E7621E012CC2D10F9A102A00D06AE703
:103DE0009A063BD558220C9C2270283A6270022415
:103DF00068E79A060ED4202CCBD078220C9D2A5549
:103E0000013486E71A0700D466E720220C9D2A5564
:103E1000013461E7202CBCD058250C9A121915707A
:103E2000013476E79A0608D558220C9C227030227D
:103E30006270022446E76032F7E77822F5E7002A4D
:103E400083D1B3E7A21E013C9D0603D478250C9FC5
:103E5000BD5460E758250C9FBD545CE778220C9C4C
:103E60002270483A627002242CE7DA0600D433E765
:103E70005A058BD4202F00D044E71F226FE73C0067
:103E80001F226CE710B5002800D110BD01F0E8FB3F
:103E9000FBE7C0460B0010B5002802D049681B683C
:103EA000984710BDF0B557464E464546DE46E0B54C
:103EB00099B08246894690460893229A239B100027
:103EC0001900FFF78AFA002800D0CDE02298239944
:103ED0000122D94B5242FFF77BFA002800D0C3E001
:103EE000229823990122D54B5242FFF763FA00280A
:103EF00000D0B9E02298239900220023FFF75AFA54
:103F0000002800D0F1E1229E239F8023269ADB0027
:103F10001A400D92269A1A4201D106232493802337
:103F2000269A1B011A403B0093460996334300D062
:103F3000B3E0002A00D0C2E1002300240A930B94CE
:103F4000002304250993259B0024AB4200D95C1B68
:103F50000223269A1A400C92269A134203D06B42EF
:103F60006B415B421C40099B002B07D00A9A0B9BBC
:103F700030003900FFF7BDF906000F0022982399A1
:103F800000220023FFF716FA002803D0802109063B
:103F90007B181F00269AAA4B009601971340089E93
:103FA0000493249B039402934246330049465046AF
:103FB00000F0AAF90400002D67D02020269A494677
:103FC000024013005A4253415B42621C18400A925D
:103FD000330022004530D047099A6F1ED317D418FA
:103FE0005C40D30F9B46002501E0202D13D008AA8A
:103FF00094461F23200063440A2101355E19FEF711
:104000002BFF3031317020000A21FEF725FF2600FA
:104010000400092EE9D805230693002304930A33EC
:1040200003935B46089E029310AB0A9A009349469D
:104030003300504605970195FFF7FCFD0C9A0400EC
:10404000002A22D04246851A259AAA421DD9B04696
:104050005746160022004346494620200135B847FE
:104060000134AE42F6D810E0269B42460493259BCD
:1040700049460393249B50460293229B239C009322
:104080000194089B00F040F90400200019B0F0BC36
:10409000BB46B246A946A046F0BD6A4B78009C4696
:1040A000400D6044FFF7AAF9674A684BFFF73FF9F4
:1040B000674A684BFFF714F9674A3B031B0B1A4327
:1040C00004000D0009981100644B0022FFF7FFF86F
:1040D000634A644BFFF72BF902000B002000290014
:1040E000FFF7FEF8FFF7A2F90990FFF787F95E4A9C
:1040F0005E4B04000D00FFF71AF900225C4BFFF73E
:10410000EFF8FFF793F95B4A5B4B29000C90200016
:10411000FFF70DF904000C980D00FFF76FF9574AEF
:10412000574BFFF704F902000B0020002900FFF7AE
:10413000CEF804000D0002000B000A940B95FFF767
:10414000F6F804000D000A980B9902000B00FFF727
:10415000C7F800220E900F914A4B20002900FFF76C
:10416000C8F80022484BFFF7BBF802000B00200004
:104170002900FFF7BEF80022444BFFF7B1F8020018
:104180000B0020002900FFF7B4F80A9A0B9B0D00E2
:1041900080210400C9050020FFF799F802000B00F8
:1041A00020002900FFF79CF802000B000E980F99E1
:1041B000FFF79FF80022284BFFF792F8344B0C9C36
:1041C0009C46644423050022FFF7B1F804000D006B
:1041D00002000B00300039000A940B95FFF7EAF853
:1041E00000285DD123002A00C625099963318D423C
:1041F000AD4159466D420435002900D1A3E6134371
:1042000063D030003900234A234BFFF7D9F8002848
:1042100007D0002230003900204BFFF7CBF80028F0
:1042200053D1249B002B00D18DE60D9B5A1E934148
:10423000249AD31A249386E6FFFFEF7FFFFFEFFF58
:10424000FFF7FFFF01FCFFFFFB799F501344D33FB3
:10425000B3C8608B288AC63F0000F03F0000F83FDB
:1042600061436F63A787D23F71A379094F930A40D7
:104270000000E03F1655B5BBB16B0240EF39FAFEC6
:10428000422EE63F00002C40000024400000184071
:10429000FF0300002D431CEBE2361A3F80842E41C1
:1042A000099B0022013B09932000164B2900FFF7D0
:1042B00020F80A00010003000A910B9294E7002302
:1042C00000240A930B9400230993249A099B9A4291
:1042D00014DDD31A013B24938023269ADB001A4372
:1042E00000230025269209932DE68022120694468B
:1042F000229B1E00239B63441F0006E60023249399
:10430000EAE7C04600002440F0B54546DE464E468A
:104310005746E0B595B08B46904699461E9A1F9B2E
:104320000A9019001000209DFFF757F8002800D0D0
:10433000B0E11E981F990122C74B5242FFF73AF88D
:10434000002800D037E11E981F990122C34B52422A
:10435000FFF73EF8002800D0A7E01E981F99002222
:10436000BF4BFFF735F8002800D088E01E981F9952
:104370000022BC4BFFF71EF8002800D07FE01E98FB
:104380001F9900220023FFF715F8002800D0FAE05B
:1043900000230B938023229C229ADB001C401A42AC
:1043A00000D102E1092D00D87CE106A98C462C0041
:1043B000172200233021093C62440133D154EF1A03
:1043C000202B00D132E1A342F7D10022A44B069268
:1043D00007931E981F99FFF729F80500FFF70EF8BD
:1043E00002000B001E981F99FEF771FF069A079BAB
:1043F000FEF79DFF08900991FFF73CF80600FEF7D5
:10440000F9FF02000B0008980999FEF760FF0022EF
:10441000954B08900991FEF7DBFF002800D1D2E010
:1044200001363000FEF7E6FF069A079BFEF7C8FF4D
:10443000002801D000260135AA46002F00D098E0C0
:104440002800FEF7DBFF02000B001E981F99FEF705
:104450003EFF854B002206000F00FEF7ABFF0CABC2
:104460009A46002845D10022300039007E4BFEF7E5
:10447000AFFF00283DD1EB073BD5013539E0229B4A
:1044800042460493219B594603930A981E9B1F9C06
:104490000295009301944B46FFF704FD15B0F0BC64
:1044A000BB46B246A946A046F0BD229B5B0767D437
:1044B00003226E4B2299019203912199029100935C
:1044C00042464B4659460A98FFF75EFBE6E706AAC6
:1044D00094461723280063440A2101341E19FEF76D
:1044E00093FC3031280031700A21FEF78DFC051E47
:1044F00076D0202CEBD10323229A1340012B1DD11F
:10450000219B002B1AD00B9B002B00D0BBE0229AE2
:104510000C33134200D0B6E0219BA34200D887E0C1
:1045200006AB9C4617223023624404E021990134F3
:1045300013558C4259D0202CF8D12024229B019471
:104540000393219B02935346B9E706AA9446172387
:104550000A216344300001341D19FEF77DFC30311F
:10456000297030000A21013FFEF776FC092E46D95A
:104570000600202CE9D155460CAB20249A46B8E71A
:1045800004223B4B96E71E9A1F9B00200021FEF75A
:104590009EFE01230B938023229C229ADB001E9017
:1045A0001F911C401A4200D0FCE60022314B062726
:1045B000069207930DE7229B0393219B029304230A
:1045C00001932D4B7BE7002208980999264BFEF7B3
:1045D000F1FE002800D02FE7002E4FD101362BE747
:1045E0000323229A1340012B66D0202CA6D00B9BCC
:1045F000002B1FD02D235246135501349EE75546FC
:10460000202CB9D030233A19002F08D0172006A942
:10461000013409180B55202CAED09442F6D10CABC6
:104620009A462E2352461355013462E72024CCE6E5
:10463000202C83D0229B5B0708D4229B1B0700D42D
:104640007CE7202352461355013477E72B2352464B
:104650001355013472E7C046FFFFEFFFFFFFEF7F06
:1046600065CDCD4165CDCDC10000E03FC06E0010ED
:10467000B86E001080842E41C86E0010F30700D47D
:10468000DAE60136D8E6219B013B2193A34200D90B
:1046900046E7AAE7229B0393219B029303230193FE
:1046A000074B0CE7074BEA009B185C681B682F0060
:1046B0000693079400248CE6219B002B95D022E7DB
:1046C000C46E001030710010F0B55746DE464E46FD
:1046D0004546E0B5A5B01F002E9B91460D93CA4AF2
:1046E000CA4B82468B461A60002900D129E200237A
:1046F00038789846002800D12BE2C54B44460C93ED
:10470000C44B55464E460E930AE0631C9846220061
:1047100033005946A84744463878002800D187E03E
:1047200001372528F1D108239A46043B9946023BDC
:104730009846013B00229C460B943878791C030074
:10474000203BDBB2102B03D80C9C9B00E3589F4608
:104750000300303B0B9C0B92092B3AD9002398465F
:104760002A2800D1DDE000239A462E284BD00300F2
:10477000683BDBB2122B1ED80E9A9B00D3589F4683
:1047800063460F001A43D8E743460F001A43D4E7A5
:104790004B460F001A43D0E710230F001A43CCE713
:1047A00053460F001A43C8E780235B000B9A7878C2
:1047B0001A430B9201310F0067284FD82428A4D93F
:1047C0000300253BDBB2422B9FD893499B00CB587B
:1047D0009F46002398460B9B47469C4600E00131CC
:1047E000BB00DB195B001F180878303F0300303B2B
:1047F000092BF4D963460B930023B8469A460F0061
:1048000001312E28B3D180200B9AC00002430B92B5
:1048100030225242944678780B0084446246092A3A
:1048200000D8AAE12A2800D1B9E10F0001319EE7A2
:10483000A046AA46B146C84503D301235B424B4478
:1048400098464B46424659460020D047200025B0A6
:10485000F0BCBB46B246A946A046F0BD010069398E
:10486000C9B20F2900D950E701238B409C466B4BFE
:10487000994663464A4613400F9362464B461A4296
:1048800000D068E10A2956D0072900D03DE70D9BEA
:1048900002CB9846002900D092E10B9B10211A0010
:1048A0008A43100011310843814680201A00C0005D
:1048B0000240110003421CD114AB9C461F220F235F
:1048C00062440D959C4615000F9B0B9402E0202B33
:1048D0000CD0110064460C4020003730092C00D861
:1048E00007380133E8540A090F29F0D80B9C0D9DB5
:1048F0000F934B46082206935346059208320392C3
:10490000002204930F9B029201931CAB22000093A0
:10491000594633002800FFF78DF9434604000D93F4
:10492000FAE60D9B04CB9046002A79DB78780D934C
:104930000F00013117E70D9B02CB14930B789C46B7
:1049400018005346002B00D134E1002815D05346FF
:10495000013B013399460D940B9C89444A460B0058
:10496000A14601E0934203D05C780133002CF9D1D9
:104970004A465B1A0D9C0B920F938023DB009946ED
:104980000B9A13400D934B461A4204D00F9B53458C
:1049900001D953460F93022399460B9A13400B9368
:1049A0004B46134200D1F5E16346002B00D1D6E11E
:1049B0000D9B002B00D182E10B1BD14631009A46A2
:1049C0003B00A1442E005F464D4622009B4689468F
:1049D00009E04B463900541CB0475346185D002887
:1049E00000D192E122009542F3D14B465A46A946A6
:1049F000BB46350017001E004C460B9B002B00D019
:104A0000ADE1149B0D9387E6C9460010AC1500205C
:104A1000906F0010D46F00102070001041900000C3
:104A20000B9A283802430B924246524278789046BD
:104A30000F000D93013196E678786C2800D15DE186
:104A400080230B9A5B001A430B920131B3E680235B
:104A50009B00ABE67878682800D148E180230B9A68
:104A600001311A430B92A6E6672800D1B2E047282D
:104A700000D11AE1452800D11CE10B9A07210492CC
:104A800042460D9B0392073352468B431900029214
:104A90000CC92800009201930D9122003300594661
:104AA000FFF700FA040037E6462800D18DE00B9AA4
:104AB0000721049242460D9B0392073352468B43D3
:104AC000190002920CC92800009201930D91220056
:104AD00033005946FFF718FC04001DE6631C984696
:104AE0002200330059462520A847444614E60D9B72
:104AF00004330F93631C99460B9B9A0700D40AE179
:104B00000D9B2200187859463300A8474346444479
:104B1000012B00D86FE1B0462E0025004C46B94667
:104B20005F4622004346013439002020B047AC42A2
:104B3000F7D12C00BB4635004F4646460F9B0D93E0
:104B4000EAE5D64B38789A4600239846002800D0EC
:104B5000D3E500246FE66F2842D000D8FDE1102392
:104B6000782800D19BE00B9A9A430B920A239C462B
:104B7000002314930A330F9338E057460B9AB90079
:104B8000C919490001330F181878303F0100303936
:104B90000929F4D9BA460B921F00591CE7E50D9B71
:104BA000B87804CB0237D143C9170A4092460D9317
:104BB000791CDCE5002800D1DFE602235B42C8E671
:104BC00021200B9A0243914676E620230B9A1A4342
:104BD0000B926CE780230B9A1B011A430B924CE754
:104BE00008239C460023149308330F930B988023CB
:104BF0000200DB001A4011000200184200D080E0E1
:104C00000C239A431000802302009B001A400B9251
:104C1000184200D0F1E0802302005B001A40914668
:104C20000D9A04321492184200D0C3E2430600D514
:104C3000D7E0030600D421E30D9B1B880993002BCA
:104C400000D02DE110339843002900D128E1002342
:104C5000994643460593534604930F9B069003934E
:104C6000002302934B4601931CAB2200009359464C
:104C700033002800FEF7DEFF0400C2E6582809D002
:104C8000622800D0E3E202239C46002314930233FF
:104C90000F93ABE720230B9A1A430B92103B9C46D1
:104CA0000023149310330F93A0E780230B9A1B016A
:104CB0001A430B9220230B9A1A430B92DDE60B1B2F
:104CC0009A460F9B99463B0037005E469B46220062
:104CD0003B003100A84753460134185D0028F6D147
:104CE0004B460F935B46B3463E001F0085E6C0234C
:104CF0000B9AB8781A430B92F91C5CE5C0239B0011
:104D0000F6E70D239A4310007DE75B463500BB466E
:104D10004E461F0071E64346012B66D9631E43448D
:104D200032002E001D003B00A2465F4691469B4686
:104D300022004B46013439002020B047AC42F7D165
:104D40005B463500BB464E46A14654461F000D9BB0
:104D50004A461878594633004444A847EEE60F9B6C
:104D6000A146984500D84CE64444E41AB0462E00CB
:104D700025004C46B9465F462200434601343900BF
:104D80002020B047AC42F7D12C00BB4635004F463F
:104D9000464636E60F98804500D873E24346E2184F
:104DA000131A32002E001D003B0091465F469B46C1
:104DB0000F9122004B46013439002020B047AC420D
:104DC000F7D15B46BB461F0043460F9901330F9353
:104DD0000B7835009C464E466046002800D0E7E53B
:104DE0000FE60D9B1B78099329E70D9B220018788D
:104DF00059463300A8474C46A0E60D9AFA3BFF3BC4
:104E000007329A430133994691444B460D931368F8
:104E1000526815921A4306D110329043002209922B
:104E2000002900D083E06122810600D54122D2B260
:104E30000A9214AA91460A9A00210A3A0B92424613
:104E40001792524618925A46B24609911E001F31D7
:104E5000149B4944BB4616941A950024674698460D
:104E60008946159D19901B920AE03032D2B24B460A
:104E700001341A55A8454CD0202C4CD006000D000A
:104E80003A00002330002900FEF724F8D2B2092AA4
:104E9000EBD90B9B9C466244D2B2E8E7853B0010FD
:104EA0006123820600D54123DBB20A3B0B934346C4
:104EB00014A91F228C46159353466244B2460D94A2
:104EC00017974C468046A9461700099D0F9E1693DA
:104ED00008E03033DBB201343B55B5420ED3202C11
:104EE0000CD0050031002800FDF7B6FFCBB2092930
:104EF000EFD90B9A94466344DBB2ECE7159B40462E
:104F00009846169B4D465646A1469A460D9C179FBD
:104F10009FE6B742B0D9179B56469846189B5F4606
:104F20009A461B9B09949B46169C19981A9D4346CA
:104F30000593534604930F9B06900393002302931B
:104F4000099B01931CAB22000093594633002800B3
:104F5000FEF770FE0400FFF7DFFB10230B9A9A4365
:104F60000F92692800D091E10B9980230A00DB00A1
:104F70001A4010000A00194203D0112118008A4378
:104F80000F920F9A802311009B0019408C461A4201
:104F90005BD1802311005B00194089460D990431D3
:104FA0000B911A4200D0B2E013005B0600D4EDE092
:104FB0000D9B1B781A00D90F0D91002B00D1A3E097
:104FC000100014AA944642461F2315925246634489
:104FD000A846BA464D461494B14604001F001692E6
:104FE00001E0202D0FD020000A21FDF735FF01350B
:104FF0007E193031317020000A21FDF72DFF260087
:105000000400092EEDD8159B4E46A9464546984604
:10501000169B57469A46149C0F9B0693434605934E
:10502000534604930A2303930D9B02934B4601932B
:105030001CAB22000093594633002800FEF7FAFD0E
:105040000B9B04000D93FFF767FB07220D9B0733B3
:105050009343013294469C4462460D920CCBD90F87
:105060000B911100194300D19BE0D91713911291B4
:105070005140109113995940119110981199129A19
:10508000139B801A99411090119114AA944642469C
:105090000023159252469946169232001F336344FC
:1050A000A8464E46BA4614941F00109C119D914686
:1050B00001E0202E10D0200029000A220023FDF755
:1050C00009FF013630322B00BA550D0022000400D2
:1050D000002BEED1092AECD8159B1094119545466A
:1050E00098464B46169AB14657461E009246149C67
:1050F0000F9B069343460593534604930A23039359
:105100000B9B02934B461CE7002885D159E70D9B6A
:105110001B68DA0F1100002B00D1A6E0DA179818EF
:10512000504014AA91461F2342464B44A8460D9472
:10513000169704006546B1461F001491159201E0D0
:10514000202D0FD020000A21FDF786FE01357E19A3
:105150003031317020000A21FDF77EFE2600040068
:10516000092EEDD8159BAC4645469846149B4E46F5
:1051700019000D9C169F0F9B0291069343460593C1
:10518000534604930A230393634650E713001B0618
:105190006ED50D9B00229B5ED9175A184A4092B2D9
:1051A00009E7002399460028A2D10022002310928B
:1051B00011936AE70D9B1B689946002B03D11033AE
:1051C0009843002938D16123820600D54123DBB200
:1051D0000A3B0D9343461693534614A91F228C464F
:1051E00017932B0062444D46B2461594189780469B
:1051F000170099460B9C0F9E08E03033DBB2013458
:105200003B55B5420ED3202C0CD0050031002800B0
:10521000FDF722FECBB20929EFD90D9A94466344DB
:10522000DBB2ECE7169B40469846179B56464D4628
:105230009A460B94189F159C434605935346049336
:105240000F9B06900393002302930B9B0BE50B9996
:1052500080230A00DB001A4010000A00194200D027
:105260008BE610239A430F928BE6002883D158E7F0
:105270000D9B1B68D9175A184A409CE60D9B1B686A
:105280000993DCE4030001330F93A5E50B926DE471
:105290000EB4012230B584B007AC08CC064D010035
:1052A0000094280052420394FFF70EFA04B030BC79
:1052B00008BC03B01847C0467D3B001000B585B060
:1052C0000391012102900093034813004A4202A96E
:1052D000FFF7FAF905B000BD953E001010B5094A78
:1052E0000300146884B0002C08D001220091064805
:1052F000524203A9A047012004B010BD00F0FCF900
:105300000020F9E7AC150020853E001000BEFDE747
:10531000094A03001068002805D00849C3188B42C9
:1053200007D81360704706480449C31810608B42C1
:10533000F7D901204042F5E7A8150020000004201D
:105340007C270020030010B508001100002B05D1B8
:10535000044B1A685B6800F03FF910BD0120404221
:10536000FBE7C046286F00100300013B10B50800A2
:105370001400012B06D801230022210000F0ACF814
:10538000200010BD01204042FBE7C0460120404202
:105390007047C046012040427047C04610B5FFF735
:1053A000B5FFC04670B5FDF70BFC074D074EB54283
:1053B00009D20024013E761BB60808CD9847230089
:1053C0000134B342F9D170BDFC690010046A0010C9
:1053D000030010B5080011001B68984710BDC046B7
:1053E000F0B5C64600B5437D07000D001600002B42
:1053F00038D0002A2EDD00216A1E90466A5C037DAB
:105400004C1C00200A2A0CD0A64216D043461B5D35
:1054100021000D3B5A4253416A5CDBB24C1C0A2A04
:10542000F2D1002BF0D1884217DB022110483B68F3
:105430009847A64207D02000E8E7864203DD311AEC
:105440003B6828189847AD19013D2B780D3B5A420F
:1054500053413B7580BCB846F0BD091A3B6828181B
:105460009847E2E70368110028009847F2E7C04632
:1054700080710010F0B5C6460B6806000C0000B540
:10548000802B06D05A1C2260E418267180BCB846D6
:10549000F0BD0F4B1D68002D16D00B1D98460D4F0B
:1054A00002E02D69002D0FD02B68002BF9D03B684E
:1054B000002B01D0AB42F4D1280041462268FFF70F
:1054C0008FFF2D69002DEFD101220023DBE7C046BD
:1054D000A0150020A4150020F0B5DE4657464E4624
:1054E0004546E0B585B017001C0006000D00FDF72D
:1054F0007DF90023314A12184B41802109068B4265
:1055000002D301222E4B52422E4908008A4601F056
:105510004FFA01906B1C03D1300001F065F80500D3
:10552000002C26D0284B9846284B1C68002C15D000
:10553000002F21D1264F02E02469002C0ED02368D1
:10554000002BF9D03B68002B01D09C42F4D1200005
:105550002A003100C0472469002CF0D1019B002BA8
:1055600028D1280005B0F0BCBB46B246A946A046EB
:10557000F0BD184B9846D7E7154B994602ABDF1D97
:105580000A239B4602E02469002CE7D02368002B05
:10559000F9D04B461B68002B01D0A342F3D12A005F
:1055A00031002000C0475B460122390020003B70DB
:1055B000C047E8E7504601F0DBF9D2E740420F0070
:1055C000FFFFFF7F84080020E1530010A01500209A
:1055D000A4150020D1530010F8B557464E46454655
:1055E000DE4698461A4BE0B59B461A4B07000E0064
:1055F00091469A46184D5B461C68002C03D115E075
:105600002469002C12D02B68002B01D0A342F7D1C3
:10561000A368002BF4D03100380098470028EFDD54
:10562000F0BCBB46B246A946A046F8BD53465B6AED
:10563000984508D85246926A4A4502D30220404211
:10564000EEE79845FAD101200021FDF7D9F8D2E71D
:10565000A015002000400540A41500200020704740
:10566000F0B5CE46474680B583B06B460600DD1DDB
:105670002870FDF7BBF800231A4A12184B4180210D
:1056800009068B4202D30122174B524217490800E8
:10569000884601F08DF9164B81461C68002C14D009
:1056A000144F02E02469002C0FD02368002BF9D09E
:1056B0003B68002B01D09C42F4D12000012229003C
:1056C000FFF78EFE2469002CEFD14B46002B05D14D
:1056D000300003B0C0BCB946B046F0BD404601F052
:1056E00047F9F5E740420F00FFFFFF7F84080020E5
:1056F000A0150020A415002070B5040000F074FF70
:1057000001230100050001222000FFF7E5FE084B00
:105710001C68002C06D06368002B05D098472469CC
:10572000002CF8D1280070BD2469002CF3D1F9E7D2
:10573000A0150020F0B5CE46474680B5A3B00400C2
:105740000D00FDF753F80023294A12184B41802120
:1057500009068B4202D30122264B5242264F3800C3
:1057600001F026F900230600019322002B002348B4
:1057700001A9FFF7A3FD019B8046002B14D1204B0C
:105780001C68002C06D06368002B0BD09847246956
:10579000002CF8D1002E25D1404623B0C0BCB9461C
:1057A000B046F0BD2469ECE7154B1D689946002D05
:1057B0001CD0144C02E02D69002D0FD02B68002B5B
:1057C000F9D02368002B01D0AB42F4D12800019A14
:1057D00002A9FFF705FE2D69002DEFD14B4601957B
:1057E0001C68CEE7380001F0C3F8D5E70195D1E792
:1057F00040420F00FFFFFF7F840800207554001017
:10580000A0150020A41500200FB400B583B004A992
:1058100001C90191FFF78EFF03B008BC04B018471F
:10582000484B02009C466244531E9A418023F0B5C7
:105830004E46DE46574645465B029C46E0B5424B27
:105840001204624485B002901A60404B0E00404939
:105850001A6010000B689843FBD10620FDF702F98F
:105860000223029904008C464A6801901A40039270
:105870000A1D9046374AF10D62449146136070024A
:1058800000295AD1A04258D8802464000227A24699
:10589000B446B30DB20204E0019E96420AD3220040
:1058A0002B000237574505D004000D00A4185D41B8
:1058B000002BF1D06646019B80259A46B3463C02F8
:1058C000E41B6D002E00013D002D38D02100504614
:1058D000FDF7C2FAE41B8345F4D2310079432D026F
:1058E000029CFF228026A4462761236812026B4097
:1058F00076016644134033608023039A9B0143443E
:105900001A604D460222072760682A602568104009
:105910006F40CF253D40356018600F488446032016
:105920006444206001981A60FDF796FA05B0F0BC57
:10593000BB46B246A946A046F0BD0227BBE73900E8
:10594000CEE7C0460040FCBF00E0004000F0004051
:1059500008C000400430000024200000F0B5C64616
:1059600000B50C228B5E07000C001A0751D480256D
:105970004A682D011D438D81002A00DC6CE0A66A77
:10598000002E42D03A68E169904600223A60DB047A
:1059900067D4002201233800B0470200431C00D125
:1059A0006EE00C23E55EA66AE1696D0706D56368C3
:1059B000D21A236B002B01D0E36BD21A00233800DC
:1059C000B047431C4FD139680C22A35E1D2962D811
:1059D000324ACA40D2075ED5314A1A40A28100221B
:1059E000626022692260DB0401D5002946D043466B
:1059F000216B3B60002908D023004033994202D03C
:105A0000380000F0C1FB00232363002080BCB846AF
:105A1000F0BD0E69002EF8D00D680022AD1B0E609F
:105A20009B0700D14A69A260002D04DCEDE736181F
:105A30002D1A002DE9DD636A3200984638002B00EC
:105A4000E169C0470028F2DC4022A38913431BB25E
:105A50000120A3814042D9E7CA6B002A00DD8EE70E
:105A6000D3E7226DA1E70C22A35E0D4A1A40A28162
:105A70000022626022692260DB04B8D52065B6E7A7
:105A80003B68002B00D18CE71D2B01D0162BDBD1FE
:105A900043463B60B9E740221343D9E70100402069
:105AA000FFF7FFFF70B504000D00002802D0436B24
:105AB000002B09D00C22AB5E0020002B03D0290064
:105AC0002000FFF74BFF70BD00F058FDF2E7C04625
:105AD00070B5041E15D00E4B1D68002D02D06B6BE7
